{
  "contractName": "DummyTokenFaucet",
  "abi": [
    {
      "constant": true,
      "inputs": [],
      "name": "DummyToken",
      "outputs": [
        {
          "name": "",
          "type": "address"
        }
      ],
      "payable": false,
      "stateMutability": "view",
      "type": "function"
    },
    {
      "constant": true,
      "inputs": [],
      "name": "DTOwner",
      "outputs": [
        {
          "name": "",
          "type": "address"
        }
      ],
      "payable": false,
      "stateMutability": "view",
      "type": "function"
    },
    {
      "inputs": [
        {
          "name": "_DToken",
          "type": "address"
        },
        {
          "name": "_DTOwner",
          "type": "address"
        }
      ],
      "payable": false,
      "stateMutability": "nonpayable",
      "type": "constructor"
    },
    {
      "payable": true,
      "stateMutability": "payable",
      "type": "fallback"
    },
    {
      "constant": false,
      "inputs": [
        {
          "name": "withdraw_amount",
          "type": "uint256"
        }
      ],
      "name": "withdraw",
      "outputs": [],
      "payable": false,
      "stateMutability": "nonpayable",
      "type": "function"
    }
  ],
  "bytecode": "0x608060405234801561001057600080fd5b506040516040806103ea8339810180604052810190808051906020019092919080519060200190929190505050816000806101000a81548173ffffffffffffffffffffffffffffffffffffffff021916908373ffffffffffffffffffffffffffffffffffffffff16021790555080600160006101000a81548173ffffffffffffffffffffffffffffffffffffffff021916908373ffffffffffffffffffffffffffffffffffffffff160217905550505061031b806100cf6000396000f300608060405260043610610057576000357c0100000000000000000000000000000000000000000000000000000000900463ffffffff1680632e1a7d4d146100595780638f1d497c14610086578063979b3ae5146100dd575b005b34801561006557600080fd5b5061008460048036038101908080359060200190929190505050610134565b005b34801561009257600080fd5b5061009b6102a4565b604051808273ffffffffffffffffffffffffffffffffffffffff1673ffffffffffffffffffffffffffffffffffffffff16815260200191505060405180910390f35b3480156100e957600080fd5b506100f26102c9565b604051808273ffffffffffffffffffffffffffffffffffffffff1673ffffffffffffffffffffffffffffffffffffffff16815260200191505060405180910390f35b67016345785d8a0000811115151561014b57600080fd5b6000809054906101000a900473ffffffffffffffffffffffffffffffffffffffff1673ffffffffffffffffffffffffffffffffffffffff166323b872dd600160009054906101000a900473ffffffffffffffffffffffffffffffffffffffff1633846040518463ffffffff167c0100000000000000000000000000000000000000000000000000000000028152600401808473ffffffffffffffffffffffffffffffffffffffff1673ffffffffffffffffffffffffffffffffffffffff1681526020018373ffffffffffffffffffffffffffffffffffffffff1673ffffffffffffffffffffffffffffffffffffffff1681526020018281526020019350505050602060405180830381600087803b15801561026557600080fd5b505af1158015610279573d6000803e3d6000fd5b505050506040513d602081101561028f57600080fd5b81019080805190602001909291905050505050565b6000809054906101000a900473ffffffffffffffffffffffffffffffffffffffff1681565b600160009054906101000a900473ffffffffffffffffffffffffffffffffffffffff16815600a165627a7a723058203af38c8910d732536b0f02767f9f61e184e0c6eefa6f29bee59dbf15180138520029",
  "source": "pragma solidity >=0.4.21 <0.6.0;\n\nimport 'zeppelin-solidity/contracts/token/ERC20/StandardToken.sol';\n\n// rewrite DummyToken to handle ERC20 tokens.\ncontract DummyTokenFaucet {\n  StandardToken public DummyToken;\n  address public DTOwner;\n\n  function DummyTokenFaucet(address _DToken, address _DTOwner) public {\n    DummyToken = StandardToken(_DToken);\n    DTOwner = _DTOwner;\n  }\n\n  function withdraw(uint withdraw_amount) public {\n    require(withdraw_amount <= 100000000000000000);\n    DummyToken.transferFrom(DTOwner, msg.sender, withdraw_amount);\n  }\n\n  function () public payable {}\n}",
  "sourcePath": "/Users/tran.ba.vinh.son/Programming/Blockchain/Ethereum/ERC20-dummy-token/contracts/DummyTokenFaucet.sol",
  "compiler": {
    "name": "solc",
    "version": "0.4.24+commit.e67f0147.Emscripten.clang"
  },
  "schemaVersion": "3.0.2",
  "updatedAt": "2019-02-27T11:45:10.416Z",
  "devdoc": {
    "methods": {}
  },
  "userdoc": {
    "methods": {}
  }
}